:020000040000FA
:10000000A0280020F9020000010300000303000003
:1000100005030000070300000903000000000000C2
:100020000000000000000000000000000B030000C2
:100030000D030000000000000F030000110300008A
:100040000906000013030000A509000013030000C7
:100050001303000013030000410400001303000019
:100060001303000013030000130300001303000038
:100070001303000013030000130300001303000028
:1000800013030000610600001303000013030000C7
:100090008506000013030000130300001303000093
:1000A00013030000130300001303000013030000F8
:1000B0001303000013030000000000000000000014
:1000C00013030000130300001303000013030000D8
:1000D00013030000130300001303000000000000DE
:1000E0000000000000000000000000000000000010
:1000F0000000000000000000000000000000000000
:1001000000000000000000000000000000000000EF
:1001100000000000000000000000000000000000DF
:1001200000000000000000000000000000000000CF
:1001300000000000000000000000000000000000BF
:1001400000000000000000000000000000000000AF
:10015000000000000000000000000000000000009F
:10016000000000000000000000000000000000008F
:10017000000000000000000000000000000000007F
:10018000000000000000000000000000000000006F
:10019000000000000000000000000000000000005F
:1001A000000000000000000000000000000000004F
:1001B000000000000000000000000000000000003F
:1001C000000000000000000000000000000000002F
:1001D000000000000000000000000000000000001F
:1001E000000000000000000000000000000000000F
:1001F00000000000000000000000000000000000FF
:10020000DFF80CD000F00AF900480047211900007F
:10021000A028002030B4044654E8000F0D4644E8FE
:100220000053002BF8D1156030BC704730B4044641
:1002300054E8000F40EA010544E80053002BF7D1D1
:10024000156030BC704730B4044654E8000F00EA33
:10025000010544E80053002BF7D1156030BC70470E
:1002600030B4044654E8000F80EA010544E8005326
:10027000002BF7D1156030BC704730B4044654E809
:10028000000F00EB010544E80053002BF7D1156087
:1002900030BC704730B4044654E8000FA0EB0105B1
:1002A00044E80053002BF7D1156030BC704770B4A0
:1002B00004464FF0000054E8006F0D68AE4207BFDF
:1002C00044E80023012044E800630E60002B1CBFBB
:1002D0000020F0E770BC704730B4044654E8000FCB
:1002E00088422CBF451A054644E80053002BF5D13F
:1002F000156030BC7047000006488047064800473C
:10030000FEE7FEE7FEE7FEE7FEE7FEE7FEE7FEE7C5
:10031000FEE7FEE789060000010200002DE9F05F1C
:100320000546002092469B46884606468146402464
:100330001BE0284641464746224600F05EF85346F9
:100340005A46C01A914110D311461846224600F071
:1003500016F82D1A67EB01084F46224601200021AE
:1003600000F00DF817EB00094E41201EA4F1010426
:10037000DFDC484631462A464346BDE8F09F202A46
:1003800004DB203A00FA02F1002070479140C2F1EC
:10039000200320FA03F31943904070470048704748
:1003A0001838000040EA01039B0703D009E008C9A0
:1003B000121F08C0042AFAD203E011F8013B00F82A
:1003C000013B521EF9D27047D2B201E000F8012B76
:1003D000491EFBD270470022F6E710B513460A46C5
:1003E00004461946FFF7F0FF204610BD421C10F8E6
:1003F000011B0029FBD1801A7047202A04DB203A18
:1004000021FA02F00021704721FA02F3D040C2F134
:10041000200291400843194670470000064C074DE2
:1004200006E0E06840F0010394E8070098471034C4
:10043000AC42F6D3FFF7E8FEC8380000E838000009
:100440002DE9F04700268AB0DFF85091B0464FF40E
:100450008075012437460696284601F09BFD38B189
:10046000D9F80403204203D0284601F089FD264331
:100470002D1D64007F1CADB2082FEDD34FF4BE7468
:10048000204601F087FD48B1204601F079FD46F095
:10049000004606AA0121002001F05EFD404D16F045
:1004A000FF0F15D00127002437420DD009EB84013E
:1004B000D1F81005D1F81015C0F3042055F8242008
:1004C000C1F3014102B190477F00641C082CEBD3BB
:1004D000002E5FDA4FF0FF30CDF8108054E028197D
:1004E00010F8507F90F9000027F0C008401C3BD066
:1004F00007A9404601F0FAFA10B34FEA97194046AF
:1005000000F024FF55F820701FB1B9F1030F03D09C
:1005100006E0B9F1030F27D104A9404601F0EEFA35
:100520004FF0A04101EB8800D0F8000706A9C0F306
:10053000014A404601F0DAFA18B1BAF1020F03D0CD
:1005400012E0BAF1030F0FD1B9F1030F08D1BAF1DC
:10055000020F1DD00221404601F0E2FC761CF6B2EB
:1005600017B149464046B847641C042CB7D3002E47
:1005700010D06A460121002001F0EEFC0699009897
:10058000884207D006900498002634460790A6E7D4
:100590000321E0E70AB0BDE8F087000000600040FA
:1005A000A001002000F01F020121914040098000BD
:1005B00000F1E020C0F88012704700F01F02012116
:1005C00091404009800000F1E020C0F80011704720
:1005D00000F01F02012191404009800000F1E0205D
:1005E000C0F8001270474907090E002806DA00F02B
:1005F0000F0000F1E02080F8141D704700F1E020AA
:1006000080F800147047000070B54FF480763046D3
:1006100001F07EFA114CB50560B1304601F07FFA69
:100620000120C5F80803607920B9012060712168B4
:10063000002088474FF48276304601F069FA00289E
:100640000AD0304601F06BFA0220C5F80803216891
:10065000BDE870400120084770BD00002000002068
:1006600007480021C0F84011C0F84411C0F84811F3
:10067000C0F84C11C0F80011C0F8041102F0BCBD64
:100680000010014002F00ABDF0B5B5480023021D7C
:100690000178101D01254FF0805406290BD11678E2
:1006A000360708D10678C6F30316032E06D0042EAB
:1006B00004D0052E02D0062907D00EE0B4F824633A
:1006C000A84FC6F304263E6002E01678360704D130
:1006D0000678C6F30316032E02D0062904D00FE0D5
:1006E000A24FA14E7E670EE01678360708D1067835
:1006F000C6F30316032E06D0042E04D0052E02D016
:10070000062907D00EE0D4F84462994FC6F342366A
:100710003E6002E01678360704D10678C6F3031669
:10072000032E02D0062906D011E0924E376827F03A
:10073000807737600EE01678360708D10678C6F362
:100740000316032E06D0042E04D0052E02D006294F
:100750000AD011E04FF08046C6F80C31C6F81031CF
:10076000834E361F336002E01678360704D10678D0
:10077000C6F30316032E02D0062905D00CE07C4FE9
:10078000032664373E600AE01678360704D10678FF
:10079000C6F30316032E02D006290DD014E0764FBF
:1007A00005263E60744E78363560734E08363360E9
:1007B0003F263F1D3E6002E01678360704D10678DA
:1007C000C6F30316052E02D0062957D062E06B4E01
:1007D00036686B4F3E60694E361D36683F1D3E6081
:1007E000664E083636683F1D3E60644E0C363668ED
:1007F0003F1D3E60614E103636683F1D3E605F4EC5
:10080000143636683F1D3E605C4E183636685C4FC5
:1008100020373E60594E1C3636683F1D3E60574EAD
:10082000203636683F1D3E60544E243636683F1DE4
:100830003E60524E283636683F1D3E604F4E2C3685
:1008400036683F1D3E604D4E303636684C4F40375F
:100850003E604A4E343636683F1D3E60474E38365D
:1008600036683F1D3E60454E3C3636683F1D3E6053
:10087000424E403636683F1D3E6002E0167836072D
:1008800008D10678C6F30316032E06D0042E04D032
:10089000052E02D0062907D019E0D4F85812394A9B
:1008A00001F04F01116002E0117809070FD10078C3
:1008B000C0F30310032803D0042801D0052806D173
:1008C00031480168C90702D06FF001010160D4F816
:1008D0003001062808D1D4F83401062804D12B4869
:1008E000016841F48061016022487438016841F474
:1008F00070010160BFF34F8FBFF36F8F4FF0102176
:10090000D1F80002002803DBD1F80402002822DA23
:100910001F4A15601F480468002CFCD01524C1F83C
:1009200000420568002DFCD0C1F80442016800298E
:10093000FCD0136001680029FCD0BFF34F8F0D4835
:10094000F0380168144A01F4E06111430160BFF31B
:100950004F8F00BFFDE7124910480860F0BD00004E
:10096000E00F00F0403501400DF0ADBA00C0074087
:100970003C050040FCED00E010560040040400106F
:1009800020C50040E40E0040000400403C17004039
:1009900004E5014000E401400400FA050090D003A2
:1009A000DC0000200148006800470000280000200B
:1009B00002E008C8121F08C1002AFAD17047704728
:1009C000002001E001C1121F002AFBD17047022064
:1009D00000F008BA70B50024084D05E0686810F80A
:1009E000340001F0ABFE641C28788442F6D304483E
:1009F0004068BDE8704000F01DB9000030000020E4
:100A00004837000070B50024064D06E068680121F3
:100A100010F8340001F0B6FE641C28788442F5D347
:100A2000002070BD30000020F8B515460C46064683
:100A3000052A01D20720F8BD01F0A0FF18B901F086
:100A400065FF0028F7D1124900224E600C708D60BE
:100A5000C1E90422C1E906220E4D0DE006EBC400F7
:100A60002968009181788DF8011000780A4A69465A
:100A700001F0DAFE0028DED1641EE4B2EED2BDE859
:100A8000F84004480021054A001D00F055B8000058
:100A90003000002048370000391500004D140000D8
:100AA00072B601F001FD00BF01F054FB0028FBD13C
:100AB000104C0121208801EB00400FA101F056FCF1
:100AC00010480068C00700D000BE2088022101EB5A
:100AD00000400DA101F04AFCBFF34F8F0948E438F4
:100AE00001680D4A01F4E06111430160BFF34F8FCB
:100AF00000BFFDE7FC000020466174616C20657258
:100B0000726F7200F0ED00E053797374656D2072BE
:100B100065736574000000000400FA050EB500213D
:100B20000091CDE901106A4644F20100FFF7B8FFD9
:100B30000EBD012000F056B9084B9B7823B12AB1B5
:100B400020B10068037C1BB1082070470720704764
:100B50000023037441744261184670476C02002000
:100B600070B502F0E7F9104800240B2104704470BE
:100B70000E4D817014206C602C706C70FFF712FDAC
:100B800007211420FFF72FFD1420FFF716FD08485A
:100B9000046007211120FFF726FD0548001F0068AB
:100BA000A860002070BD00006C02002050000020F2
:100BB000081501402DE9F843DFF8709099F80230EC
:100BC0005BB350B3052902D20720BDE8F88343691F
:100BD0001BB3437C012B22D0002704460025884606
:100BE0001646284600F036F8684602F023FDC0B1EC
:100BF000012101700E4944600968C0E90218C0E98A
:100C000004769DF8000089F80100002000F024F827
:100C10001420FFF7DDFC2846D7E70820D5E70F466C
:100C2000DBE70425002000F017F8F4E76C02002051
:100C3000041501400649897839B130B1416921B1C3
:100C400000210174022102F0B7BA082070470000A9
:100C50006C02002000F002B800F008B872B602483A
:100C60000168491C0160704764000020034908685E
:100C7000401E086000D162B670470000640000208A
:100C80002DE9F041064608680C46411C4FF0A0478C
:100C90004FF0010506D005FA00F1C7F808152068E5
:100CA00001F02AF96068411C02D0002101F012F91C
:100CB0003168A069C1F82405607D227D3168104348
:100CC000C1F86C05D4E900123068C0F81425C0F8EA
:100CD0000C15207D012815D1A068411C02D00021EF
:100CE00001F0F8F8E068411C05D08540C7F80855C8
:100CF000E06801F001F9D4E902123068C0F8082573
:100D0000C0F81015BDE8F0812DE9F04106460868ED
:100D10000C46411C4FF0A0474FF0010506D005FAE4
:100D200000F1C7F80815206801F0F0F86068411C70
:100D300002D0002101F0D7F83168A069C1F824057C
:100D4000607D217D32680843C2F86C05D4E9001249
:100D50003068C0F80C15C0F81425207D012815D185
:100D6000A068411C02D0002101F0BDF8E068411CE0
:100D700005D08540C7F80855E06801F0C7F8D4E908
:100D800002123068C0F80825C0F81015BDE8F081DF
:100D90002DE9FC410646C0074FF000050ED0104F6C
:100DA00000240122385D009500231146019501F0D1
:100DB00037F8641C042CF4D300F046F8B0070DD5C6
:100DC000074E0024361D0022305D03230095114696
:100DD000019501F025F8641C042CF4D3BDE8FC81D6
:100DE0000637000007490B5C4FF0A041D1F80425FD
:100DF0000120984020EA0203C1F808351040C1F8EC
:100E00000C057047063700000249085C012101F01B
:100E100098B80000063700000249085C002101F084
:100E200090B80000063700000649095C4FF0A0406A
:100E3000D0F80405C84010F0010000D0012080F077
:100E4000010070470637000010B500242046FFF768
:100E5000DBFF641C042CF9D310BD10B50024204620
:100E6000FFF7DAFF641C042CF9D310BD10B502465D
:100E7000064B4FF0FF3000215C5C944201D10846E4
:100E800010BD491C0429F7D310BD00000A3700002B
:100E90002DE9F0470D468146FFF7E8FF0446042898
:100EA00036D2DFF874801B481C4EA8F10C0725B31E
:100EB000012D0ED0022D2BD104EB44003044457897
:100EC000002D25D0B968002922D02846BDE8F0477A
:100ED000084704EB4401755C0E44717849B10E4A31
:100EE0004FF40041093A8068FFF764FE08B987F8BB
:100EF0000390B17808F80410E2E78068FFF79AFEE3
:100F000004EB4401314418F804008D78A842D7D08E
:100F1000BDE8F087103700001000002060010020BD
:100F2000FFF758BD10B50A2816D100F067F908B1CF
:100F3000FFF7F4FDFFF7F4FF08B1FFF7EFFD0748F7
:100F40000068FFF777FE08B1FFF7E8FD0020FFF724
:100F50005BFF03490120087010BD0000F03600005F
:100F60000000002070B50023042810D20D4D00EBC6
:100F70004004012A02D101290CD00022094E00EBC5
:100F80004000304461B1012906D0022906D0072370
:100F9000184670BD0E30C2B22A55F9E74270F7E725
:100FA0008270F5E76001002070B506461E480024F7
:100FB000C0E90161B00720D500250122114628466D
:100FC000FFF7D0FF6D1C0446042D02D2002CF4D094
:100FD00013E094B940F2666204211448FFF724FD3F
:100FE00004000AD1FFF70EFD040006D10F48104A95
:100FF0000021001FFFF7A0FD0446F00712D00120DA
:10100000FFF7C6FE74B909480A4A00210C38FFF7F9
:1010100093FD040006D10548074A01210838FFF76F
:101020008BFD0446204670BD040000201C370000E4
:10103000E112000079170000CF0900002DE9F05FF0
:101040006A4C054600266078B34618B184F801B0B2
:1010500000F07AFB664F4FF47A694FF4C87A4FF08C
:101060000108182D62D2DFE805F0AC0C0C31404DC0
:1010700062676B746B74BE7D7D7D7D7DACAFB2B5F8
:10108000BEBE0020FFF7D0FE00284FF0000008D0C1
:10109000FFF7BAFE022D02D14FF4E16008E04846A6
:1010A00006E0FFF7B9FE022D01D1C82000E050464E
:1010B000410CC0034FF4FA72801841F10001257011
:1010C00052000023FFF72AF901462AE00020FFF72B
:1010D000ABFE00284FF0000004D0FFF795FE4FF460
:1010E0004870E5E7FFF798FEDFE70020FFF79CFE7A
:1010F00000284FF0000002D0FFF786FECFE7FFF791
:101100008BFED4E70020FFF78FFE00284FF0000091
:1011100002D0FFF779FE01E0FFF77EFE257041F671
:101120009A1100223868FFF745FD064646E0002088
:10113000FFF758FE257008E0002051E025703DE0E3
:1011400084F801800120FFF74DFE002240F6CD41DA
:10115000E8E784F801800120FFF744FE00224FF405
:101160008041DFE77868FFF765FD0646D5F111009D
:1011700000D02EB10220FFF747FE84F802B01DE038
:10118000012816D980B2C8214843C117C90341EAD2
:101190005041C0034FF4FA72801841F1000152002F
:1011A0000023FFF7BBF8014600227868FFF702FD35
:1011B00006460220FFF730FE84F802803046BDE884
:1011C000F09F00F0C1FAB9E700F0BEFAB4E700F012
:1011D000BBFA04E000F0B8FA0020FFF71DFE012082
:1011E000FFF71AFEAAE7FFF738FEA7E70400002082
:1011F000103700000A220021FFF7B4BE10B500200E
:10120000FFF728FD05480078400702D10449012076
:1012100088600020FFF720FD002010BD1054004022
:10122000005000402DE9F0470546861C90460F46C9
:101230004FF001090020FFF70DFD1B4C20683860BE
:10124000D4E90001401AA16804F21C47081A0EE014
:101250000121384600F0E2FB00F014FB014638465D
:1012600000F0DCFBD4E90001401AA168081A401C18
:101270008642EDD8B8F1000F03D0052065F3891040
:1012800002E0062065F39F50A2682168114004EB3C
:101290008101C8602068304420600020FFF7DCFC3A
:1012A0004846BDE8F08700007804002030B482682A
:1012B0000468531C8360A154D0E901128A4202D30E
:1012C00030BC00F0B4BC30BC70470000034803C819
:1012D000814201D10120704700207047780400202E
:1012E00000780221FFF7D4BD05494FF0FF320828EE
:1012F00041F8202002D3084480F8482070470000BD
:10130000A0010020F0B54FF0FF3512B100230826F0
:1013100001E008230C260C4C05E000BF54F82370B4
:101320007F1C04D05B1CB342F8D32846F0BD2618BE
:101330005DB286F8305044F82310002AF5D1E11848
:1013400081F84800F1E70000A001002002490844AC
:1013500090F9300070470000A001002070B5084CE3
:10136000050009D010342168002907D008682060E2
:10137000496828468847F6E70834F4E770BD00005E
:101380008C010020054A012120B1012805D191706E
:10139000FFF7E4BF51700020FAE770478C0100208E
:1013A0002DE9F05F26484168F1B3DFF898B00E6888
:1013B0008146DBF8004087688078E11B21F07F459B
:1013C000ED1CB0B9DFF880804FF48030C8F84403DA
:1013D000C8F804031120FFF7E5F81120FFF7EDF836
:1013E0004FF0010AC8F800A02F2001F09FF989F8FA
:1013F00002A0B54200D23546124BE8193C3320F02A
:101400007F401860DBF800105A46091B21F07F412D
:10141000001B20F07F40C91C81420FD91068186062
:101420002F2001F083F900E004E0BDE8F05F112017
:10143000FFF7CEB8BDE8F05F01F07CBDBDE8F09FDE
:101440005000002004150140001001402DE9F04734
:101450000025DFF88C803CE06068002100EBC506C9
:10146000012032789146FEF78AFFD4E9062300EA8C
:10147000020701EA030C57EA0C0728D082438B438A
:101480004846C4E9062301F037FA3278824691468D
:1014900001200021FEF773FFD4E9042300EA0204CF
:1014A00001EA03074A4650460021FEF768FF444020
:1014B0004F403C430BD17078012801D0012100E05E
:1014C0000021726881EA0A010AB1484690476D1C02
:1014D000EDB298F8000044468542BDD3BDE8F087E0
:1014E0003000002010B50021024800F0A2FA80F37D
:1014F000100010BD940800200E4910B50A784C78F1
:101500000023A24212D0521CD2B20A70022A00D189
:101510000B70084A0B780C3252F82320026088685E
:10152000104420F07F408860012010BD036000203F
:1015300010BD0000500000202DE9F0418046024619
:1015400001200021FEF71BFF1A4F05460E46786862
:10155000FFF770FB00280CD1174CD4E90621104688
:101560002A4001EA06031A4305D0A843B143C4E95F
:101570000601BDE8F081404601F0BEF930B1D4E982
:10158000040128433143C4E9040105E0D4E904100F
:10159000A943B043C4E90410D4E906012843314308
:1015A000C4E90601A1687868BDE8F0410022FFF7B0
:1015B00001BB000048370000300000202DE9FC5F2F
:1015C0000E008346DDE90C47C6F1000098469246BE
:1015D000814600D40846012503E000BF90FBFAF0E5
:1015E0006D1C5045FADAA84500D9454624B1002EB5
:1015F00001DB780700D5641EB80702D5B8F1000FEB
:101600000AD0F80708D13CB1A54205D2202158469E
:10161000641EFFF74BFEF6E7002E02DA4E462D2140
:1016200002E0780703D52B215846FFF73FFE07F06D
:10163000030002280BD1B8F1000F08D13CB1A5423C
:1016400005D230215846641EFFF730FEF6E7CDE99B
:101650000047434652463146584601F091FFBDE8E7
:10166000FC9F000070B50D46044600684FF4887179
:1016700001F009F84FF49071206801F004F84FF47C
:101680009271206800F0FFFF4FF4A271206800F013
:10169000FAFF20681249C0F8041320686907000B9C
:1016A00040B2090E002806DA00F00F0000F1E02039
:1016B00080F8141D03E000F1E02080F80014206899
:1016C0000121000B40B200F01F0291404009800050
:1016D00000F1E020C0F88012C0F8001170BD0000D9
:1016E00010030200024600201268930702D053073D
:1016F00002D47047500714D502F00300012802D02D
:1017000002280CD105E0C2F383100B68801C18443A
:1017100004E00223086803EB9252104408600120A1
:101720007047086800EB9253C2F38910401CEEE743
:101730000268134602E08A4204D01268002AFAD1F5
:101740000B600160704700000A4810B5807860B1F6
:10175000002401E0022C06D02046FFF755FB641C54
:10176000042CF7D310BD0324F6E7BDE81040FFF7C3
:101770006BBB00000400002003480179C90702D0B8
:101780000078FFF75BBC7047040000202DE9F047AC
:10179000394E002780463D46DFF8E090D6F804A099
:1017A00057E003D00446D0F81C8035E099F80020BB
:1017B00002EB4201521CD2B289F8002009EBC101B0
:1017C00099F80230091D9A4201D189F80050486801
:1017D0000A780446012A12D0022A02D0032A3BD1F9
:1017E00008E001F0B9FC00B10127257434E005746C
:1017F000C06900E070680028F9D170602CE0207C9E
:1018000050BB88686060C868A0600869E06048698B
:10181000A061F07800B165606268B168184B501A39
:1018200020F07F40984202D2A168084406E0881A5E
:10183000A16820F07F40814202D9081A206000E0B0
:10184000256065600120A56020742046E56101F0F7
:1018500065FCB8F10000A4D199F8001099F80100D6
:101860008142A3D117B97168514502D00120BDE86A
:10187000F0870020FBE70000500000206C020020F1
:10188000FFFF7F002DE9FF410026234800F0C3F849
:101890002148001F074600F0BEF8204C6068009009
:1018A000A56800E000986946284004EB80000C30F1
:1018B000FFF718FF0028F5D101AA009901EA0503F6
:1018C00004EB8303491CDB6842F82030401C009184
:1018D0000228F2D3019800F0030001280BD002285F
:1018E00010D10198032101EB90500099BDF80A60D6
:1018F00001EB900005E00198BDF80A60C0F3831089
:1019000008440090384600F083F808B10098606001
:1019100004B03046BDE8F081900800207804002033
:1019200001F0A0FE0020FFF777FA0C4F0C4CDFF817
:1019300034904FF47A464FF0010800BF00F00AFCE3
:101940000028FBD138780028F8D06425611C304687
:1019500088476D1EFAD1C9F80080EFE7000000202B
:1019600000370000000500402DE9F047C788044615
:10197000181D16468946B0FBF7F1B0FBF7F207FBDE
:1019800012009A193A44D21CB2FBF7F2DDF820A0FB
:1019900001E02468491E0029FBD13D1A8846B54262
:1019A00016D818E0BAF1000F05D0211809EB08008D
:1019B0002A46091D04E0204409EB08012A46001DBF
:1019C000FEF7F0FC00202468761BA844B74201D93A
:1019D000354600E03D46002EE4D1BDE8F08700002A
:1019E00030B5024659B100F047FD0021074C09E02F
:1019F00004EB810315685B88AB4202D111600020C3
:101A000030BD491C8142F3D3052030BDE0000020E9
:101A1000002100F009B8012100F010B808B56A46AD
:101A2000FEF72BFC009808BD08B56A46FEF70BFCD4
:101A300008BD08B56A46FEF7EDFB08BD08B56A4665
:101A4000FEF7F4FB009808BD08B56A46FEF722FCD5
:101A5000009808BD70B5044600252846FFF7FAF83F
:101A600021686268086890420ED9401E08600178BB
:101A7000A38AE26801FB0325227A2168101AC0B20A
:101A80000A79824200D208710020FFF7E5F8284663
:101A900070BD70B505460C460020FFF7DBF8E8681E
:101AA000A98A201AB0FBF1F12A681068431C136060
:101AB0000170BDE870400020FFF7CEB810B530B11E
:101AC000017A42680368891AC9B21A6006E00E20DA
:101AD00010BD03681A68541C1C601170491EC9B2FD
:101AE000F7D2006800210171084610BDC20800F05D
:101AF00007030120895C98400840704710B5C20870
:101B000000F00703885C01249C402043885410BDEA
:101B100000F180400068002800D00120704708B51F
:101B200000F18040002101600068009008BD0000C5
:101B300070B50A4C207808B185250CE00020A06023
:101B400060602061E060064800F0BAFD054600F0E4
:101B5000A1FD01202070284670BD00008C010020EE
:101B60008513000070B5104D0446A87838B114B143
:101B70006168012088470020FFF76CF80CE0002026
:101B8000FFF768F824B1084821461030FFF7D0FD70
:101B9000E86808B900F0A4FDE868401CE860BDE80A
:101BA00070400020FFF758B88C010020F0B50546C2
:101BB0000478154889B0164640F82420124A08696E
:101BC000121DA2F1080742F82400487F3855202250
:101BD0006846FEF7E7FB04942878385C48B10EB1FC
:101BE0000A4A00E000226946281D01F031F809B0D8
:101BF000F0BD0EB1064A00E00022694605F10C0076
:101C000000F0F8FEF3E70000180000205D3400004B
:101C1000A93200000FB408B50399002904D004AA22
:101C200000926A4600F00FF801B05DF814FB10B5A1
:101C300082680446002A05D0D4E904032168984745
:101C40000020A06010BD2DE9FC4791460C008046A5
:101C500076D014F8011B39B125290ED04046FFF784
:101C600025FB20780028F4D198F80C00002867D0D4
:101C70004046BDE8FC47FFF7DABF0020012221788B
:101C80002B291BD02D2902D0302908D102E040F0A9
:101C9000010001E040F00200641C002AEFD10025A1
:101CA0002A290ED02178A1F130020A2A11D205EB9F
:101CB000850201EB4205641C303DF1E740F0040071
:101CC000EAE7D9F800100B1DC9F800300968641C58
:101CD0000D44217800232E290BD114F8011FA1F106
:101CE00030020A2A05D203EB830201EB4203303BA8
:101CF000F3E76C290DD068290BD0692921D00BDCC2
:101D0000252918D0582931D063290ED0642915D13E
:101D100017E014F8011FECE7702969D0732932D05D
:101D200075291BD0782909D120E0D9F80000011DC0
:101D3000C9F8001001784046FFF7B8FA641C90E734
:101D40006CE0D9F800100A1DC9F800200968CDE937
:101D500000500A224046FFF731FCEFE7D9F80010A7
:101D60000A1DC9F8002009680A2206E0D9F8001007
:101D70000A1DC9F8002009681022CDE9005040462C
:101D800001F0FEFBDAE7D9F8001000270A1DC9F8B8
:101D900000200E68C00705D112E04046761C7F1C6B
:101DA000FFF784FA31780029F7D104E0202140467A
:101DB0006D1EFFF77BFABD42C0D9002DF6D1BDE7FD
:101DC0004EB13046FEF712FB074604E020214046A4
:101DD0006D1EFFF76BFABD4206D9002DF6D103E068
:101DE0004046761CFFF762FA31780029F8D1A5E762
:101DF000D9F80000011DC9F80010056830214046DF
:101E0000FFF754FA78214046FFF750FA08200021E6
:101E1000CDE90001034610222946B0E7BDE8FC8762
:101E200070B541EA4201DDE904564FF0A04441EAB1
:101E3000830141EA052104EB800041EA0641C0F834
:101E4000001770BD70B541EA4201DDE904564FF05C
:101E5000A04441EA830141EA052104EB800041EA04
:101E60000641C0F8001770BD70B541EA4201DDE9D6
:101E700004564FF0A04441EA830141EA052104EBF6
:101E8000800041EA0641C0F8001770BD70B541EA14
:101E90004201DDE904564FF0A04441EA830141EAE2
:101EA000052104EB800041EA0641C0F8001770BD2F
:101EB0001CB5002100910B4601220191FFF7D4FFD0
:101EC0001CBD1CB5002100910B4601220191FFF7BA
:101ED000DDFF1CBD1CB500220B460092114601928D
:101EE000FFF7C2FF1CBD1CB500220B460092114635
:101EF0000192FFF7CBFF1CBD1CB5002100910B46E2
:101F0000012201911146FFF7AFFF1CBD1CB5002156
:101F100000910B46012201911146FFF7B7FF1CBD4E
:101F20004FF0A04202EB8000D0F8002722F44032AC
:101F3000C0F80027D0F8002742EA0141C0F8001796
:101F4000704701224FF0A043824011B1C3F8082529
:101F50007047C3F80C25704718B5084B6C46014410
:101F60001B68009306E000BF54F82030D3F810350A
:101F7000401C08C28142F7D818BD00003C37000061
:101F8000034908B50844002101600068009008BDBD
:101F90000060004002494058012800D000207047EE
:101FA0000060004030B5124B01460020D3F81044C9
:101FB000224609E0157A854205D1401C0A28F7DB44
:101FC0004FF0FF3030BD5268002AF3D1421CF9D0E7
:101FD0000872D3F810242AB152684A60D3F810244A
:101FE000516030BD0022C3F810144A6030BD0000BB
:101FF00078040020F0B595B01C4615460F460846FB
:102000001A9E00F009FB182109A8FEF7E4F90E96C4
:10201000CDE909540023082203A9384600F011FB3A
:1020200005980690BDF81000ADF81C00BDF8120030
:10203000ADF81E0000208DF821000398082600F05E
:102040000300012802D0022818D032E0039833465A
:10205000850AC0F3C2008DF8200003980FA9C0F3D1
:102060008314A200384600F0ECFA09A8009006ABF1
:1020700022460FA9284600F02BFA1AE00398840D97
:10208000C0F3C2008DF82000082C01D2254600E0E4
:10209000082533462A460FA9384600F0D2FA2E44C6
:1020A000641B09AB06AA29460FA800F063F9002CAF
:1020B000EAD1384600F0B6FA15B0F0BD70470120FD
:1020C00001F010B9084810B50178084A515C19B1FF
:1020D000001D00F049FE02E00C3000F057FDBDE8A5
:1020E0001040002001F0FEB86C0000201400002019
:1020F00008B5034A00924023024AFFF77BFF08BD60
:10210000D12F0000780300200A4A012902EBC00009
:1021100007D0022907D0032907D0042907D00020BF
:10212000704702207047042070470079704740795B
:1021300070470000E838000010B5FFF7C0FF042129
:102140000348FFF72FFF02490120487210BD00002D
:10215000800000202DE9F0478CB0FFF7B7F818B1E8
:1021600000200CB0BDE8F087784C0020C4F81804BB
:10217000BFF34F8F60680290A5684FF000082840B9
:1021800004EB800008E021680298814201D8616078
:10219000E6E7284004EB80000C3002A9FFF7A2FA22
:1021A0000028F0D103AB029901EA050204EB820298
:1021B000491CD26843F82020401C02910228F2D327
:1021C000039800F00300022802D001284ED0A5E0B9
:1021D00003985022810D8946B2EB905F00D85021C0
:1021E0000E4666F39F5003900831594800F0CBF932
:1021F000070078D000F010FA4346082203A93846B9
:1022000000F025FA029908F1080A2940681A8000AE
:10221000001D864223D94D4D0C3530B1C2B204EBBE
:102220008101301A90460C3104E02946F2B20025B3
:1022300090462846C6B25346384600F008FA0AEBE4
:1022400008032DB1324629464FEA070000F0FFF996
:10225000029909F1030001EB900002903AE004EBCF
:1022600081015346324638460C31EFE70398C0F3FC
:102270008311062900D3062161F389100390C0F36E
:102280008310801C8100324800F07DF9070045D0A2
:1022900000F0C2F94346082203A9384600F0D7F9F6
:1022A00008F1080800260FE00298434600EA0501FD
:1022B000401C04EB81010290042238460C3100F0EE
:1022C000C6F908F10408761C0398C0F38310B042E5
:1022D000EAD847B1D4F81054D4F8180468B1384695
:1022E00000F0A0F92CE019E0687A012804D12A68EE
:1022F00028463946126890476D68002DF4D138465B
:1023000000F090F90020FEF7A5FCD4F8180408B9F5
:10231000029860600020FEF79FFC11E0D4F81044A2
:1023200004E021682046896888476468002CF8D159
:1023300008480221008801EB004007A100F016F8D0
:10234000FEF7C4FF80F001000BE7000078040020D6
:1023500028390000FC0000204261636B656E6473E5
:1023600020666C75736865640000000000231A46DF
:1023700000F04EBE2DE9F0470E4680461C469246C0
:1023800008293ED894F80C90002020731946104676
:1023900000F078FD0025B54206D218F805201AA1F4
:1023A0002046FFF737FC03E019A12046FFF732FC77
:1023B0006D1C082DEFD317A12046FFF72BFC00253D
:1023C000B54210D218F80570FDF7E8FF0068C05D4F
:1023D00010F03E0F01D03A4600E02E220EA120461A
:1023E000FFF718FC03E00DA12046FFF713FC6D1C5E
:1023F000082DE5D301222146504600F025FD84F842
:102400000C90BDE8F08700002025303278000000F5
:10241000202020007C000000256300002000000038
:10242000104810B5FF218160002101604160C0F8B3
:102430001814C0F8141480F820140B4800F0F0F8B9
:1024400000280DD109480A490A4B401AC10800204A
:1024500003E000BF23F82000401C8842FAD300208C
:1024600010BD000078040020283900002839000041
:10247000E8380000E000002002480349401AC00884
:102480007047000028390000E838000013B568469E
:10249000FFF7A6FA08B100201CBD0248009950F8C9
:1024A00031001CBDE838000070B508480125D0F89F
:1024B000104480F8205405E0657221682046496880
:1024C00088476468002CF7D170BD000078040020B4
:1024D0002DE9FF4781460C9D00200C462F7B287379
:1024E000984616462946184600F0CCFC072E42D2E4
:1024F000DFE806F004090F161F2A36004946284671
:10250000FFF788FB37E0494628462268FFF782FB41
:1025100031E0D4E9002349462846FFF77BFB2AE057
:10252000A0680090D4E9002349462846FFF772FBD3
:1025300021E0D4E90201CDE90001D4E900234946B4
:102540002846FFF767FB16E004F1080007C88DE88E
:102550000700D4E9002349462846FFF75BFB0AE061
:1025600004F108000FC88DE80F00D4E900234946A4
:102570002846FFF74FFB00222946404600F064FC46
:102580002F73BDE8FF872DE9F041858A80462D1F16
:102590004819C01CB0FBF5F0C6B24046FFF75AFA26
:1025A000041E19D00020207101206071E5800027F1
:1025B0002546761EC4F800800BE04046FFF74AFA35
:1025C00060B16179491C6171286005467F1CC0F8C3
:1025D0000080B742F1D32046BDE8F081204600F0EC
:1025E00002F80020F8E72DE9F041457901466B1E1D
:1025F000002201E00968521C9A42FBD30F68014691
:10260000002605E038460C68FFF743FA2146761CA1
:10261000AE42F7D3BDE8F0810121001DFFF7FEB9FE
:10262000FFF74CBA10B504460121001DFFF70CFA64
:1026300010F0FF0F04D12046BDE81040FFF7D3BFD4
:1026400010BD38B501240094FFF78EF938BD38B5B8
:1026500000240094FFF788F938BD4058002800D0C6
:102660000120704708B5002242504058009008BD34
:10267000D0F80403084000D00120704740580028DB
:1026800000D00120704708B5002242504058009009
:1026900008BD000008480068012110F0010F08D1B2
:1026A0004FF0E020E02280F80024C0F88012C0F84B
:1026B000001102480160704700E100E01805004089
:1026C0000649024600200B790BB1852070470A604D
:1026D00001220A7100224A71704700002000002088
:1026E00070B54FF48270FFF71AFA02204107C1F863
:1026F00004030B4B196841F08070186009480268A8
:1027000042F00104046044684FF40A554668361BE1
:10271000AE42FBD30260196003490120086070BD1E
:10272000FCED00E0001000E008000040002802D0AE
:1027300001498001084770475137000010B5044631
:1027400000F06AFB28B12046BDE810400021FFF7E9
:10275000E7BB204600F06CFB00280FD02046FEF7B8
:10276000F5FD074A02EB8001D1F8103523F0010393
:10277000C1F8103501218140C2F8081310BD0000D6
:10278000006000402DE9F0418846054600F044FB1A
:10279000234E002828461AD0FEF7D8FD304490F882
:1027A00048008009032802D001280ED007E04FF02E
:1027B000A040D0F81005E84010F0010F05D003212B
:1027C0002846BDE8F041FFF7ABBB0221F8E700F077
:1027D0002FFB002822D02846FEF7B8FD04464FF410
:1027E000807000EB84000F4F81B207EB8400D0F8BB
:1027F000102542F00102C0F810250846FFF7C0FB83
:10280000B8F1000F0AD02846FEF7A0FD56F82000C8
:10281000002803D00120A040C7F80403BDE8F081E0
:10282000A0010020006000402DE9FC41DFF8BC80E1
:10283000044608EB0400002790F930001346C01747
:102840000E46401C01D008274CE0B0781946C0F372
:1028500040022046FEF756FD0546401C41D0B078A8
:10286000410719D4C0070AD04FF0A04000EB840103
:10287000D1F8000720F00200C1F8000707E00021AE
:102880007378204600910A460191FFF7DBFA174959
:1028900020465431FFF732F9B078800718D5144834
:1028A000317800EB8500D0F81025124B1A40C0F8A3
:1028B00010254FF4F8524FF4403302EA042203EAA1
:1028C00001410A43D0F810150A43C0F8102509E069
:1028D00008EB0500327810F8481F41EA82110170B8
:1028E00000E004273846BDE8FC810000A00100207C
:1028F00000600040FFE0FCFF4FF0A041D1F8101550
:10290000C14011F0010000D00120704770B5184D92
:1029100095F8580008B1082070BD0020411E2A1803
:10292000401CC0B282F830102028F8D30024204682
:10293000FEF7DAFC641CE4B20C2CF8D300240D4939
:10294000E0206C6581F8000401264020891FC1F851
:102950008002C1F800014FF4BE70FFF711FB064979
:10296000F007C1F8040385F85860204670BD0000E8
:10297000A001002006E000E000600040034890F85D
:102980005800002800D0012070470000A00100205E
:102990000121B1EB507F01D1012070470020704729
:1029A00070B50D4600F0BAFA04000FD00020FEF713
:1029B00051F9207920B10020FEF74EF9112070BDA9
:1029C0000120256020710020FEF746F9002070BD2F
:1029D00010B500F0A3FA002802D0002101600171B7
:1029E00010BD00000149024800F0A4BCFC01002019
:1029F000002000402DE9F0410546007916460F46BB
:102A000000EB40012D4A01EBC00102EB810494F878
:102A10002A1011B10820BDE8F081294951F8201091
:102A20002868FFF7BDFF08B11120F4E739462846B2
:102A3000FEF726F966603869206030004FF0010625
:102A40002FD03F7F4FF48E712868FFF70BFE4FF4B5
:102A5000A2712868FFF706FE28681A49C0F8041317
:102A600028684FEA4711000B40B2002806DA00F050
:102A70000F0000F1E02080F8141D03E000F1E020D9
:102A800080F800142868000B40B200F01F0206FA1C
:102A900002F14009800000F1E020C0F88012C0F887
:102AA000001128680421C0F800150020A061E06131
:102AB00084F8290044F8140FA675ACE7FC01002047
:102AC00040370000800002002DE9F04705460079FC
:102AD0000B4600EB400101EBC000234901EB8004F1
:102AE000284600F043F810B11120BDE8F0874FF000
:102AF0000008C4F82080A360626184F828804FF445
:102B00008E76474631462868FFF7ACFD28684FF0BF
:102B10000109C0F808902146286800F0A7FB60680A
:102B200000BBD5F800A00EE094F8280008B10F27EC
:102B300016E031465046FFF790FD0028F4D02146BC
:102B4000504600F093FB216A60698142F1D331461F
:102B50002868FFF782FD0028F9D02868C0F80C909B
:102B6000C4F814803846C0E7FC010020007900EB6F
:102B7000400101EBC000044901EB800040690028DE
:102B800000D0012070470000FC0100202DE9F04733
:102B9000044600794FF0000900EB400101EBC00052
:102BA000254901EB80072068C0F80095786880B15E
:102BB00020682249C0F8081320680121000B40B2A8
:102BC00000F01F0291404009800000F1E020C0F8B1
:102BD00080112068D0F80C25D0F81485D0F808654D
:102BE000D0F810554FF0FF31C0F81415C0F80C158F
:102BF0002068C0F80815C0F81015501C02D0104607
:102C0000FFF756F9B8F1FF3F02D04046FFF750F901
:102C1000681C02D02846FFF74BF9701C02D03046E2
:102C2000FFF746F92068FFF7D3FE87F82A90C7F828
:102C30000490BDE8F0870000FC010020840202003F
:102C40000149024800F022BC280200200020004078
:102C50002DE9F0410546164600790F46154A00EB6E
:102C6000C00102EB810494F8201011B10820BDE8E6
:102C7000F081114951F820102868FFF791FE08B142
:102C80001120F4E739462846FEF73EF866603869B9
:102C900020601EB1397F2846FEF7E4FC2868082131
:102CA000C0F800150020A061E0610121606184F896
:102CB0002010DCE728020020443700002DE9F0470F
:102CC00004460E460079204900EBC00001EB800568
:102CD00017463046FFF75CFE30B1204600F036F86C
:102CE00020B11120BDE8F0871020FBE76F61AE60D6
:102CF0004FF49076002731462068FFF7C4FC4FF46C
:102D0000AC7841462068FFF7BEFC2068AA68696974
:102D1000C0F84425C0F84815206801218160686822
:102D200078B9B14649462068FFF7A8FC06464146F7
:102D30002068FFF7A3FC0643F4D000B10F27002062
:102D400068613846CEE70000280200200079054976
:102D500000EBC00001EB80004069002800D001209A
:102D600070470000280200202DE9F0470446007952
:102D7000274900EBC00001EB800720684FF00009F5
:102D8000C0F80095786880B120682249C0F808131F
:102D900020680121000B40B200F01F029140400961
:102DA000800000F1E020C0F880112068D0F80C25E8
:102DB000D0F81485D0F80865D0F810554FF0FF31E1
:102DC000C0F80C15C0F814152068C0F80815C0F834
:102DD0001015501C02D01046FFF773F8B8F1FF3FF2
:102DE00002D04046FFF76DF8681C02D02846FFF776
:102DF00068F8701C02D03046FFF763F82068FFF7D0
:102E0000E7FD87F82090C7F80490BDE8F087000040
:102E100028020020100302000449084490F9300001
:102E2000082801DB0120704700207047A001002026
:102E30000449084490F93000082801D20120704765
:102E400000207047A001002010B50C46017A05292A
:102E500008D0407A38B1084808A102682046FEF739
:102E6000D9FE00E01AB106A12046FEF7D3FE2046A7
:102E7000BDE81040FEF7DBBEB8000020257300005F
:102E80000D0A000038B5C3880D46044633B114A0BE
:102E9000009015A216A12846FEF7BCFE217A05294E
:102EA0001CD0607A48B1A088FFF72EF9164951F876
:102EB000202016A12846FEF7ADFEA0880021FFF7CE
:102EC000E5FA03461049207A143951F8202001B060
:102ED0002846BDE830400EA1FEF79CBE38BD00007C
:102EE0001B5B306D000000001B5B313B33316D001C
:102EF00025734C6F67732064726F7070656420284F
:102F000025642925730D0A00B800002025730000F0
:102F10003C25733E2025733A200000000349884277
:102F200001D1034870470020704700000020004096
:102F30002800002070B5012670044FF0E021002524
:102F4000C1F88001084C4010C4F84803C4F80803D5
:102F500066602F20FFF7EAFBA660044C2F20A560D7
:102F6000FFF7E4FBA57070BD001001405000002089
:102F700070B5054688690C4600284FF484712846D0
:102F80000AD0FFF76FFBD5F81805626AE16888542C
:102F9000606A401C606270BDFFF764FBD5F81805DD
:102FA00070BD1FB501238DF80030CDE90121D0E9B6
:102FB0000012684690471FBD1FB501238DF80030F1
:102FC0008DF808100192D0E90012684690471FBDA5
:102FD00070B50D4C0020D2B22070201D0B4D03782F
:102FE000EB5C1BB1001DFFF769FE02E00C30FFF740
:102FF0006BFD08B1FDF792FD6078002802D02178C2
:103000000029FAD070BD00006800002014000020E4
:103010002DE9F84F204D92468946064698460122F2
:1030200069461846AF68FEF7FDF858B300980021CE
:103030000446801C09E000BF00EA07035AF821207B
:1030400005EB8303401C491CDA604145F4D34FEA89
:10305000164AFEF747FA4AEA0041601C384005EB81
:1030600080003C4005EB8402C160D06866F3C50077
:1030700068F3891069F39F2020F00300401C20F0C2
:103080000400D06095F8200402E000BFFFF762F86A
:103090000028FBD1BDE8F88F780400202DE9F84F17
:1030A0001D4C00256846D4E901A6FEF725FA002745
:1030B00038B30023009A61681CE0D1F800C00846CC
:1030C000944503D9ACEB02020A6015E0A2EB0C02B6
:1030D00063440760D0F80CC0C1698146BCF1000FA1
:1030E00008D006EB030828F07F48C0E9018CC9F836
:1030F0001C5005460029E0D128466160FEF746FBDA
:1031000003E02846FEF742FB10B15046FEF748F9AF
:10311000E770BDE8F88F0000500000200D4B10B59F
:10312000596831B102680C68A24204D8A21A0A6038
:10313000C161586010BD0B4603E00B46C969121B04
:1031400021B10C689442F8D3A41A0C600260C161EA
:10315000D86110BD500000202DE9F041144E776871
:103160003D462C4603E0844204D02546E469002C09
:10317000F9D11BE0D4B1A5420BD1F869706040B918
:103180000C49012088600021B160F0702F20FFF70A
:10319000CDFA2168E069E86110B10268114401606C
:1031A0007068874202D00120BDE8F0810020FBE773
:1031B0005000002000100140F8B5064600240D46DE
:1031C0002046FDF747FD684600F034FA68B1057007
:1031D000084946609DF8000048700020FDF73CFD5E
:1031E0001420FDF7F5F92046F8BD04240020FDF772
:1031F00033FDF8E76C0200202DE9F041194D6C68B1
:10320000002C2CD0184800270068A968B846401A3E
:1032100020F07F462068B0420CD82146361A074479
:10322000E469087C20B181F8108088694969884781
:10323000002CEFD129786878814206D1401CC0B2B9
:103240006870022801D185F80180064869780C3041
:1032500040F82170BDE8F0411420FDF7B9B9BDE890
:10326000F0810000500000200415014070B50C46AC
:1032700005464FF48E71FFF7F5F9216AA068415CAD
:10328000206A401C2062C5F81C1570BD1FB50022C5
:103290008DF800200291816801914261D0E900120D
:1032A000684690471FBD00001FB50A4601788DF89B
:1032B000001041680191017A8DF80810C0680390F0
:1032C000044850F82210001F50F82220684690470A
:1032D0001FBD00001C00002001490120087070473C
:1032E0006800002010B588B0044620220E496846C8
:1032F000FDF758F806200090C01F0190029003903F
:103300004FF0EB7006900CB1084A00E000226946CD
:103310000748FEF74BFC08B1FDF700FC0448001F0E
:10332000447008B010BD000074370000D9320000AE
:103330006C0000202DE9FF470C4605464FF4007154
:10334000FFF796F901274FF40178002618B34FF4E0
:10335000927949462846FFF780F9E0B14946284668
:10336000FFF780F9C5F8088394F8290000B96F6069
:1033700002208DF80000D5F88004C5F88004039081
:10338000A0690290E0680190A661E661D4E90012AC
:103390006846904728E004212846FFF769F918B3EA
:1033A0004FF484712846FFF758F9E8B121462846C2
:1033B000FFF7DEFD616AA069884215D1E06938B186
:1033C000E268616AA0612069E6616662E06008E027
:1033D00094F8290000B96F60C5F80883A661E26817
:1033E000616A2046FFF7DDFD4FF48E78414628469E
:1033F000FFF733F978B1206A6169884202D294F804
:10340000280020B341462846FFF72CF9616911B125
:103410002046FFF73BFF4FF4A27841462846FFF7CE
:103420001CF9002818D041462846FFF71BF994F8EC
:10343000290000B12F60A06900280DD0A661E268C4
:10344000616A04B02046BDE8F047FFF7AABD2146F7
:103450002846FFF70BFFDEE7BDE8FF871FB50A46EA
:1034600001788DF8001041680191017A8DF80810FB
:10347000C0680390044850F82210001F50F8222022
:10348000684690471FBD00001C0000202DE9FF4149
:103490000C464FF4927705463946FFF7EFF80026C1
:1034A000C0B139462846FFF7EEF802208DF800003B
:1034B000D5F88004C5F880040390D5F83C058DF854
:1034C0000800E0680190A661E661D4E90012684650
:1034D000904723E04FF4887739462846FFF7CEF827
:1034E000E0B139462846FFF7CEF8D5F83C15A0697B
:1034F000884213D1E06960B1E268D5F8000220F09B
:103500002000C5F80002E069A0612069E661E06082
:1035100001E0A661E2682046FFF74EFD4FF4A27776
:1035200039462846FFF7AAF860B139462846FFF722
:10353000AAF8A06930B1A661D5F83C152046E2682A
:10354000FFF73AFD4FF4907739462846FFF796F893
:10355000002813D039462846FFF795F860690028FF
:103560000CD0D5F84C058DF800608DF80800A068E7
:1035700001906661D4E9001268469047BDE8FF817A
:103580002DE9F05F8346DDE90A4A994690460D46EB
:103590000846012703E000BFB0FBF8F07F1C404560
:1035A000FAD2B94500D94F465FEACA7012D18CB140
:1035B0005FEA8A7002D5B9F1000F01D0202607E03A
:1035C000302605E031465846641EFDF76FFE0CB10B
:1035D000A742F7D35FF00106B9F1010F02D9A9F1B3
:1035E000010903E0B5FBF6F0404502D306FB08F6FF
:1035F000F2E7DFF83C9000BFB5FBF6F000FB165594
:1036000019F800105846FDF751FEB6FBF8F6002EEB
:10361000F2D15FEACA7009D0002C07D0A74205D2C8
:1036200020215846641EFDF741FEF5E7BDE8F09FF6
:10363000563700000A494A788B78521CD2B293421E
:1036400000D100220B78934201D100207047027014
:10365000487800EB400001EBC000001D70470000FF
:103660006C02002010B54FF400410020FEF7D8FE98
:1036700008B1FDF753FAFEF75FFDFEF759FA08B1FE
:10368000FDF74CFA0020FEF76DFAFDF769FA08B174
:10369000FDF744FA11490320FDF786FC08B1FDF758
:1036A0003DFA0020FDF7A6FD08B1FDF737FA0C4AF8
:1036B00001210C48FDF740FA08B1FDF72FFA09483F
:1036C00000224FF480410068FDF774FA002803D00F
:1036D000BDE81040FDF722BA10BD0000250F000024
:1036E000330B0000F0360000000000000000000076
:1036F00000010020000000000000000000000000A9
:103700000338FDD87047111213140D0E0F1000006E
:1037100020010020400100206C0100200D0003006A
:10372000910E00000E000300910E00000F00030038
:10373000910E000010000300910E000000000050E8
:10374000E5290000412C0000030000004C0200208D
:103750000338FDD870473031323334353637383995
:103760004142434445460000F1200000C5200000CE
:10377000BD200000FFFFFFFFFFFFFFFFFFFFFFFF78
:10378000FFFFFFFF00000000000000000000D60166
:10379000070100000040404040404040404041415F
:1037A0004141414040404040404040404040404016
:1037B00040404040400502020202020202020202B0
:1037C00002020202022020202020202020202002AD
:1037D000020202020202909090909090101010103D
:1037E00010101010101010101010101010101010D9
:1037F000020202020202888888888888080808086D
:103800000808080808080808080808080808080838
:103810000202020240000000953700007761726EDC
:10382000696E670064656275670000001B5B313B71
:1038300033306D001B5B306D000000001B5B313BC3
:1038400033316D001B5B313B33326D001B5B313B11
:1038500033336D001B5B313B33346D001B5B313BFD
:1038600033356D001B5B313B33366D001B5B313BE9
:1038700033376D00696E666F000000006572726F0D
:1038800072000000636C6F636B000000434C4F4399
:103890004B0000004750494F544500005052530020
:1038A000554152540000000055415254450000005B
:1038B00062616C6C6F632E6C6F675F6D656D706FAE
:1038C0006F6C000061707000403900000000002043
:1038D00000010000B0090000403A00000001002093
:1038E000A0270000C009000084380000000000008C
:1038F0008C38000000000000943800000000000038
:103900009C38000000000000A0380000000000000B
:10391000A838000000000000B038000000000003DC
:10392000C438000000000303940000208C00002035
:1039300094000020B8030020F800002018000000C8
:103940000000000000000000000000000000000077
:103950000000000000000000000000000000000067
:103960000000000000000000000000000000000057
:103970000000000000000000000000000000000047
:103980000000000000000000000000000000000037
:103990000000000000000000000000000000000027
:1039A0000000000000000000000000000000000017
:1039B0000020004000000000002000400000000047
:1039C0006837000000000000000000000000000058
:1039D00000000000000000000000000000000000E7
:1039E00000000000000000007C3800001C380000CF
:1039F0007438000024380000343800002C380000EF
:103A00003C380000443800004C38000054380000B6
:103A10005C380000643800006C3800000090D0036F
:103A20000000000000000000000000000000000096
:103A30000000000000000000000000000000000086
:0400000500000201F4
:00000001FF
